:020000040000fa
:080000000402040000000000ee
:020000040000fa
:1004000084020400000000002fa820008077240050
:100410000001880000000000050007000c00070034
:10042000c0120200000000000040da000000fe00e0
:100430004440a900c00120000000e0000300320099
:1004400000002000a00188004440a8000000060031
:10045000e02e22000100200016003700620040005c
:10046000e0804800910188009001ba0062004000dd
:10047000e0804800910188009002ba0062004000cc
:10048000e08048000002eb006028e10005003a002f
:100490008301e90007003300038009000059eb00e5
:1004a000040037006128e100010032000082eb0007
:1004b00005000700910188001001ba000200e00069
:1004c000e6ff3a00000005009101880080027800f4
:1004d00062004000e08048003559ba008301e9001d
:1004e000080032002559ba008301e90005003200f6
:1004f0000400e000f4ff320015d9ba008301e900de
:10050000f1ff3a0000000600881f7800020478001e
:1005100014000700080040004f04780000000600a7
:100520000000fa00881f7800000478003fb99700a7
:10053000ea81570080007800402820001000070062
:10054000800078000000e000020035000040eb0071
:1005500000f47800010078004f0478000080fa0071
:1005600000000600800178000200e0000300320075
:10057000b15978000201e900fdff3a0000000600d1
:100580006200fa00889fbe008a9fbe000004be0081
:1005900002057800830078006a805700ad000700ec
:1005a000f88f9f0089979f000000eb00909f9f00ad
:1005b0001a80fb008005fb000000ea00cf04de008b
:1005c0000904780050022000808f550001003a0095
:1005d0000904e9000800e0000c0034000f909700c7
:1005e000080178008a007800ff8997000300010065
:1005f00080979f008080eb000000e00090003200b8
:100600001f98970008004000909f9f000905450033
:1006100050022000808f5500040032000b00e000e3
:10062000e3ff3a009f989700850037000000eb0039
:10063000f0979f00e0979f00d0979f00c0979f0082
:10064000b0979f00a0979f00b09f9f0009003700c0
:1006500000a72000008050000000d00061a720000b
:1006600001004000bf98970090807000b19f9f00ec
:100670000a05e8009a00fb0000a7200077000700a9
:10068000800078000000e000f1ff3a00a0c2b30053
:100690009a4f10000e003a003fb897000080e90022
:1006a000b0bf9f0010007800a09f9f000000e000f6
:1006b00005003d000000ea00a09f9f003f989700c2
:1006c0000020a000b09f9f000a05e800110037003d
:1006d000a19f9f000b003700af989700f0ff270005
:1006e000808f5000060032006a09b9001a00fb0032
:1006f0000200400001fd2f0001004000a09f9f006c
:100700000a05e8001a00fb005c0007000000e0009a
:10071000f1ff3a00e0c2b3009a4f1000030032002c
:100720000080eb00809f9f001c003700a0c2b30038
:10073000da4f100007003a003fb897000080e90048
:10074000b0bf9f0010007800809f9f000a05e8005e
:10075000120037000000eb00809f9f000b00370065
:100760008f989700f0ff2700808f5000060032001e
:100770006a09b9001a00fb000200400001fd2f00c9
:1007800001004000809f9f000a05e8001a00fb005e
:100790003a0007000000e000f1ff3a009a00fb0079
:1007a000007c24002d0007008040eb000000e000ea
:1007b00001003200ba407800817f9f0080c6b300fc
:1007c00080cf500004003a009acf100002003a0097
:1007d00066405000070037008f789700c0c6b3000e
:1007e00080cf500005003a009acf100003003a0075
:1007f00065404000807f9f000a05e800a0fb2f00b5
:10080000008447003a01fb0088017800ea80570025
:1008100060f92f000f0040001e0007000000e000fc
:1008200006003a008800780060f92f000f004000b1
:100830009e0107000000e0005dff3d008080eb00ae
:10084000010078004f05be004f04be000080fa0092
:1008500000000600010878000000060090cf10009c
:10086000050032001004e00001003a00000005001d
:10087000d0cf1000fbff3a00000006000003b100db
:10088000030035009000b10001003c00100005009d
:1008900000000500889fbe008a1f780000047800d1
:1008a0000102780002457800830478000200fb0012
:1008b000cf80de005002b1000180b100320520007f
:1008c000820f5000e08f58006b013e000060010075
:1008d00063013700680137006701370066013700a0
:1008e000650137006401370063013700620137009a
:1008f00061013700600137005f0137005e0137009a
:100900005d0137005c0137005b0137005a01370099
:100910005901370058013700570137005601370099
:100920005501370054013700530137005201370099
:1009300051013700500137004f0137004e01370099
:100940004d0137004c0137004b0137004a01370099
:100950004901370048013700470137004601370099
:100960004501370044013700430137004201370099
:1009700041013700400137003f0137003e01370099
:100980003d0137003c013700210137003a013700b3
:10099000390137003801370037013700810037004f
:1009a0003501370034013700330137003201370099
:1009b00031013700300137002f0137002e01370099
:1009c0002d0137002c013700150037001c003700bf
:1009d0002901370028013700270137002601370099
:1009e00017003700240137002301370022013700a8
:1009f00021013700c20037006a003700f5003700d8
:100a00001d0137001c013700010137001a013700b2
:100a10006400370018013700170137006100370004
:100a20006e01440012007800808141009480e9004a
:100a3000010a78000009e8009149780017013700a1
:100a400028619000c0c6b300804f51000a003a00f0
:100a50009400780064805000000a78001000be0006
:100a60004f89de00cf91de000002be000203780055
:100a7000820378001600370010c7b300804f510082
:100a800003003a00140178006800510005003700a7
:100a900094007800a0c6b300804f510005003a00d2
:100aa00068805000000a78003002be002003be00bb
:100ab000070037000180e900000a78001000780084
:100ac00000027800cfa2de000503780086037800dc
:100ad000049cbe000694be00a860900080c6b300cf
:100ae00080cf50000f00320020c6b30080cf5000ee
:100af00006003a00184078000000fb00cf80de00be
:100b000001017800820178000a00370040c7b30075
:100b100080cf5000030032006640400080cf50007c
:100b200006003a0018007800cf80de00010178004e
:100b300082017800009cbe000294be003800be0016
:100b40002801be00e00f5000e08f5800e00f590070
:100b5000e08f590004003d006e01440092007800cf
:100b6000d0c2b3000c003700081090000018a3009a
:100b7000040032006e01440092007800b0c2b3005d
:100b8000050037000008a300580032006e01440041
:100b90009200780000c2b30080f478000109e800f8
:100ba0005200370028619000c0c6b300804f51004a
:100bb00006003a009400780064805000000a780033
:100bc0001002be006033b8001600370010c7b30033
:100bd000804f510003003a00140178006800510072
:100be0000500370094007800a0c6b300804f510084
:100bf00005003a0068805000000a78003002be000c
:100c00002003be00070037000180e900000a7800d9
:100c10001000780000027800050020000600200087
:100c200007002000049cbe000694be00a86090004f
:100c300080c6b30080cf50000f00320020c6b30042
:100c400080cf500006003a00184078000080fb007a
:100c50000100200002002000030020000a003700ed
:100c600040c7b30080cf5000030032006640400010
:100c700080cf500006003a001800780001002000e4
:100c80000200200003002000009cbe000294be0071
:100c9000081090000038a300140032003800be0095
:100ca0002801be00e00f5000e08f5800e00f59000f
:100cb000e08f59000d00320080c7b300804f55000f
:100cc0000300320080c5b300804f550007003a0092
:100cd0006e0044009000780002c3b30082f47800f4
:100ce0008100e8008af478000108e80078009000ac
:100cf00000804400600498008a407800410037007a
:100d0000286090008000fb00c0062000808f50000b
:100d1000230032000a003c0064005000808f500025
:100d20002600320004003c0066005000808f500016
:100d30000b00320021003700a0062000050037001c
:100d400040072000808f50001c0032001b003c0038
:100d500063005000808f50000700320017003700fa
:100d60001480e900000a780010007800485c9000c8
:100d700008487800490037001480e900000a78002c
:100d80001002780068089000cf80de000101780032
:100d900082017800009abe000292be003f00370038
:100da0001480e900000a78001001780068089000bb
:100db000cf80de000089be00380037001480e900d3
:100dc000000a780010007800680c9000080878008d
:100dd000320037001480e900000a78001000780023
:100de000cf80de000101780082017800009cbe0007
:100df0000294be00780090000080440060049800d7
:100e000081c7b30008007800f60007002300370010
:100e10001480e900000a780010007800600498004f
:100e2000580990000200e00002003d009f01070009
:100e3000090037008000eb00a30107008000780064
:100e40000000e000030032006800900000805000c5
:100e50000100370058089000100c98000f00370070
:100e60006e0144009200780050c2b30080f1780017
:100e70000109e80009003700ee0044001100780085
:100e8000808144000a4278008008e8000a04e000fb
:100e900001003a0054c2b300844978000000eb001e
:100ea0004f0578004f04be00000006000400fa0061
:100eb000889fbe008a9fbe008c1f780000047800c7
:100ec0000106780070089000f800900001005000c2
:100ed0008808900001005000980890000100500020
:100ee000a808900001005000b808900001005000d0
:100ef000c8089000810550000002220090bf9f00aa
:100f000000032300a0bf9f00081090000028a3004a
:100f100018003a000b00e000160034000b057800c2
:100f20008a047800e20f55000100360029002000f5
:100f30000900e0000c00340058009000c801900047
:100f400009017800ee80570003000100500498006a
:100f50008080eb000000e0009c00320068089000f8
:100f600009004000600c9800090555004240a900a6
:100f7000ebff3c00780190000200e0000c00340020
:100f800058009000c80190008c0078000300010018
:100f9000500498008080eb000000e0008b003200dd
:100fa00068089000f800900001004000600c980074
:100fb000080890000000e0001600340000057800ea
:100fc0008a047800e20f5500010036002900200055
:100fd0000900e0000c00340058009000c8019000a7
:100fe00009017800ec8057000300010050049800cc
:100ff0008080eb000000e000740032006808900080
:1010000009004000600c9800090555004240a90005
:10101000ebff3c00180990000200e0000c003400d7
:10102000e800900058009000c80190000300010003
:10103000500498008080eb000000e0006300320064
:10104000680890009808900001004000600c98002b
:10105000280890000000e000160034000005780029
:101060008a047800e20f55000100360029002000b4
:101070000900e0000c00340058009000c801900006
:1010800009017800ec80570003000100500498002b
:101090008080eb000000e0004c0032006808900007
:1010a00009004000600c9800090555004240a90065
:1010b000ebff3c00380990000200e0000e00340015
:1010c000e8009000180890008080400058009000d0
:1010d000c801900003000100500498008080eb00dc
:1010e0000000e0003900320068089000b808900065
:1010f00001004000600c9800480890000000e000eb
:1011000016003400000578008a047800e20f5500cc
:1011100001003600290020000900e0000c00340026
:1011200058009000c801900009017800ec80570039
:1011300003000100500498008080eb000000e000f4
:10114000220032006808900009004000600c9800fe
:10115000090555004240a900ebff3c000810900033
:101160000028a300180032000b00e0001600340035
:101170000b0578008a047800e20f55000100360064
:10118000290020000900e0000c0034005800900005
:10119000c801900009017800ee80570003000100ab
:1011a000500498008080eb000000e000070032004f
:1011b0006808900009004000600c9800090555007f
:1011c0004240a900ebff3c008000eb0001007800ea
:1011d0004f0678004f05be004f04be000080fa00a5
:1011e000000006006f02b000889fbe008a9fbe000c
:1011f0008c9fbe008e1f780080067800f0a520002e
:10120000b0b79f0080c5b30080cf5000020032000d
:10121000e2a42000b2b79f0083002000c3b79f0064
:10122000f0c6b30080cf50000a0032006940400091
:1012300080cf500005003200a4002000c4b79f00fa
:1012400080c5b30080cf500002003a0000012000aa
:10125000c0b79f008e0120003d04be002d05be00da
:1012600040c6b30080cf500003003200654040000c
:1012700080cf50000a003a00e00f5400e08f5c007d
:10128000e00f5d00e08f5d0005003d000800be003e
:101290000a01be00990107000205be000004be005d
:1012a000e00f5400e08f5c00e00f5d00e08f5d0018
:1012b00003003a005d0890000000e0000c003200de
:1012c0007e012000cfb0970001027800cfa2de009f
:1012d00005037800860378000800be000a01be00fe
:1012e0001c0207003fb2970064407800d0e79f00df
:1012f0004fb09700cf80de000101780082017800b6
:10130000d0b79f00e1b79f00f2b79f0083bf9f0057
:101310000203be000002be000800be000a01be00bb
:1013200005020700809ebe008296be00e00f5000be
:10133000e08f5800e00f5900e08f59002200340080
:101340000e00e000200034003d00be002d01be0074
:101350005fb29700efb297007fb397008fbb970003
:10136000000207000205be000004be000e07e900ef
:10137000e1fc2f008f804000010647005fb297001c
:10138000efb297007fb397008fbb97000800be00b5
:101390000a01be00900207001d0010003fb1970037
:1013a000624e7800889ebe008a96be00e00f540010
:1013b000e08f5c00e00f5d00e08f5d000200340014
:1013c0000e00e000e0ff3c00cfb19700e88f510035
:1013d00010003a000d1090000038a3000d003200fc
:1013e000f70f570006003e00e4fc2f000e024200fb
:1013f000e4c07f0000c3b30080cf5000050032007e
:101400000e07e90000c3b300e1fc2f008e8040000e
:1014100080f07f0078011700920e98006d00900018
:10142000e3fc2f008f8141008e8041004dfc0700be
:101430001d0e90005d089000800f560006003d00d4
:101440000c005000800e98000d1090000040a1008c
:10145000801698000f0037000000e0000d003d00ee
:101460000d10900074006000f00f500009003a0069
:101470007d089000fd009000010050008d08900054
:10148000010050000c0750004240a9000100340048
:101490008e0e98004f0778004f06be004f05be0025
:1014a0004f04be006f02b10000000600800078000b
:1014b0001004e000020032005104e000feff3a0098
:1014c00000805000000006000200e000050032002d
:1014d00090cf1000040032000000e8000201e90093
:1014e000fbff3a000000eb0000000600889fbe00f2
:1014f0008a9fbe008c1f780092000700990033007d
:1015000003866c006450e100240032006420e10096
:10151000270032006150e100220032006120e1002a
:10152000210032008b854200eb07b1000134b80086
:10153000003ab8000804420089844a00013ab80021
:101540000030b8008880400009014a0004003300e0
:101550000000400081804800020149008b05e9003d
:10156000c909dd0083017000010032001300200072
:10157000c814de004814dd004709de001200b20086
:10158000c808de00088470008600070001f0a10092
:101590000cf0a70001f0a0007b0037006120e10003
:1015a0007d0032000801be000200be00f7ff3700d8
:1015b0006150e100fcff3a007700370003f0a20021
:1015c000889fbe008a9fbe008c1f78005d000700c8
:1015d000640033006450e1004f0032006420e100f9
:1015e0005200320003826c0007003b000905d00066
:1015f0000306d000820f54000c065d000200390083
:1016000002003200890178000306780085825500c7
:1016100004003d000003fd008103fd008502ea0097
:101620008b854200840f720002003b0060001000b6
:10163000e08018006011b8000005eb007a28e10096
:101640000a00390006007800c75ddd00f707b20028
:10165000878075002d003700828171000a017800b3
:10166000610560008180d1000080d3008502e9001f
:10167000f9ff3b00060440008784480002003b005d
:1016800060041400e0841c000988a30007003200f5
:101690008a81710082817100610164008904d10036
:1016a0000884d3008b05e800170037000978a300f1
:1016b00013003a000b00e000130034008b05e90032
:1016c0000804440089844c000a4474000978a3008b
:1016d0000d003a000b00e000070034008b05e90024
:1016e0000804440089844c0001003a000b002000eb
:1016f0000978a300f7ff32000001eb000200370079
:10170000828171000a017800260007000cf0a70012
:1017100001f0a0001c0037006420e10002003a0044
:10172000838f6c001c0033000801be000200be0065
:1017300015003700f4ff2f00400037001400200090
:101740003e0037000004be00570007000003be0043
:101750000405be000200be0053000700844f750060
:10176000000006000200be006450e10005003600e3
:101770006420e100020036000968a30001003a007d
:101780000800be000160a0004f0678004f05be00b3
:101790004f04be0000000600f0ff2f00f1ff2700fd
:1017a000f9ff370081002000618055000b003d00eb
:1017b0000b00200061fe2f000100e1001d0034003d
:1017c00082817100610164008904d1000884d30022
:1017d0000000e800faff3a00710020006100640098
:1017e0000300700002006000090032006104440040
:1017f000e0844c000988a500050032008b05e80054
:101800006808e10002003a008904d1000884d3008e
:10181000f20f20000258e10005003d00c75ddd0029
:10182000f907b20089807500080078000000060002
:101830000bf827008b00780000000500889fbe0091
:101840008a9fbe00841f7800beff07004f0078000b
:1018500011003300f0ff2f00838f6c0006003b0067
:10186000040565000a00a7000800370009f0a6007b
:101870001000200008003700820f5400838f5c00a6
:10188000030039001000200001003e00000020008d
:1018900009f0a7000000ea004f05be004f04be009b
:1018a0000000e00000000600c70ade00f107b200f9
:1018b000f50fb20008003200e1cf42000200320012
:1018c0000170a00024000500810f700001003200ab
:1018d0000408050044000500810f700002003a0072
:1018e000140005008502e9000000400081c04800a6
:1018f000fcff3b000170a000240005006000100008
:10190000e080180060011900e08119000000060065
:10191000881f7800000478005001be004000be001f
:101920000000420081804a0002014b0083814b008d
:10193000009cbe000294be00dc00070003003100e2
:10194000480090000000e800400498004f04780030
:1019500000000600889fbe00000478008004eb00b1
:101960005001be004000be00d00007000100310061
:10197000190020000400500085805800060159001d
:1019800087815900009cbe000294be004800900070
:1019900009005000400498004f04be0000000600fb
:1019a0001200fa00889fbe008a9fbe008c1f78003c
:1019b0000205be000004be00f4b79f0085bf9f0073
:1019c00096bf9f00a7bf9f000000eb00e0b79f00fd
:1019d000d0b79f00c0b79f00b0b79f00a0b79f00cf
:1019e0000006eb005fb197006fb097008000d00059
:1019f0000000e00015003d00e1b79f000100780005
:101a00000200e00001003d000000a000ac00070063
:101a100001003d000000a000af00070001003d00f4
:101a20000000a000b200070001003d000000a0007f
:101a30008100070001003d000000a000b200070087
:101a40007c805700b2ff070014003700e1b79f0009
:101a5000010078000200e00001003d000000a0004d
:101a60009700070001003d000000a0009a00070059
:101a700001003d000000a0009d00070001003d00a6
:101a80000000a0006c00070001003d000000a00065
:101a90009d0007007c805700aeff07006fb09700e5
:101aa0000000e000070035001000200001002000c9
:101ab0006011b80008047000898470000a05710084
:101ac0008b8571000c06e800f0032000800f5600a3
:101ad000c4ff34006fb097000000e00006003d0036
:101ae0007fb297008fba97001fbb9700afbb9700dc
:101af0007c80570086ff07000802be000a03be0074
:101b00006fa897000000e00004003a002fb2970091
:101b1000bfb297004fb39700dfb397000400be0039
:101b20000601be004f0678004f05be004f04be0000
:101b30000080fa0000000600881f780018002000ce
:101b4000881f780096ff07008f87e9004f04780010
:101b500000000600801feb0091ff07008f87e9005f
:101b6000000006000800fa00889fbe008a9fbe00a1
:101b70008c1f78006e00070005003d004300070041
:101b8000300007000c003d00330007000b00370059
:101b9000e00f5200e08f5a00e00f5b00e08f5b0027
:101ba00006003d000400be000601be0053ff070012
:101bb0000205be000004be001c0020002c0007002f
:101bc000ddff07000c00e000010032004bff0700c2
:101bd0004f0678004f05be004f04be000080fa009b
:101be000000006000800fa00889fbe008a9fbe0021
:101bf0008c1f78004e00070002003d001c002000f2
:101c0000220007000f00070001003d00120007003e
:101c100017000700cfff07000c00e00001003200b2
:101c200036ff07004f0678004f05be004f04be0088
:101c30000080fa000000060090b79f000100d0006d
:101c400080b79f00e00f5400e08f5c00e00f5d0064
:101c5000e08f5d00000006000800be000a01be0023
:101c600026ff07000205be000004be0000000600bb
:101c70000802be000a03be005fb09700efb09700f5
:101c80007fb197008fb99700000006001bff070087
:101c90000100070000000600b0b79f00c1b79f0019
:101ca000d2b79f00e3b79f00000006000400e100e8
:101cb0000588e1000690e1000798e10000000600b9
:101cc000c0b79f000200d000b0b79f00afb0970030
:101cd0000100e00000000600b0b79f000100d00046
:101ce000a0b79f009fb097000100e0000000060031
:101cf000a0b79f000100d00090b79f008fb0970061
:101d00000100e0000000060080b79f000804d0003a
:101d10008984d2000a85d2008b85d2005fb29700f9
:101d2000efb297007fb397008fbb970000000600cb
:101d3000d9ff07000605be000404be000006eb0044
:101d4000e00f5000e08f5800e00f5900e08f59007d
:101d500000000600889fbe008a9fbe008c9fbe00c8
:101d60000404b8000506b8008904460060854e00ea
:101d70000606b8000a054600e0854e000706b800d2
:101d80008b054600040eb800890446000a854e0003
:101d9000050eb8000a0546008b854e00060eb800f9
:101da0008b0546000416b8000a0546008b854e00d8
:101db0000516b8008b054600041eb8008b054600ca
:101dc0000800be000a01be004f06be004f05be005f
:101dd0004f04be00000006000800fa00889fbe0005
:101de0008a9fbe00170007000605be000404be005f
:101df000e00f5200e08f5a00e00f5b00e08f5b00c5
:101e000008003d000400be000601be00bbfe070046
:101e10000205be000004be000f000700b7fe070069
:101e2000080007000802be000a03be000a000700ff
:101e3000c8ff07004f05be004f04be000080fa0037
:101e400000000600e0b79f00f1b79f0082bf9f002f
:101e500093bf9f00000006006fb09700ffb097008f
:101e60000fb997009fb99700000006000600fa001e
:101e7000000f78000000eb00100798009e00900013
:101e800010032000808f50000f003e000060fe0015
:101e90000000eb00200798002e0090009e0f5000dd
:101ea00005003100000000002e0090000000e80056
:101eb00020079800f8ff37001e0090000000e8009f
:101ec00010079800edff37000080fa0000000600c0
:101ed0000600fa00000f7800110798000000eb00e0
:101ee00020079800ae0090001e009000808f5000e8
:101ef0000f003d002e0090001e0040001080fb00ef
:101f0000a0118800901180000110200001006000e5
:101f10000000e00002003a0000000000f9ff370076
:101f20002e0090000000e80020079800edff370029
:101f30000080fa00000006000600fa00000f78009a
:101f4000110798000000eb0020079800ae009000f9
:101f50001e009000808f50000f003d002e0090006a
:101f60001e0040001080fb0020118800101180002e
:101f700001102000010060000000e00002003a00b3
:101f800000000000f9ff37002e0090000000e8007c
:101f900020079800edff37000080fa0000000600df
:101fa0003600f800809fbe00829fbe00849fbe0066
:101fb000869fbe000000fa0089e0a9002052800040
:101fc0000000e8002052880021528000b004200068
:101fd000808f50000d0034002152800050092000f5
:101fe000808f500009003400e2c2a900803e20002a
:101ff0009eff0700e2c2a800c00420002052880013
:10200000c04b80000000e800c04b88000080fa0050
:102010004f03be004f02be004f01be004f00be0086
:102020003600f90000400600809fbe002200fa0042
:102030008560a9000000eb00100f98000040eb0045
:102040004057980030118000004f78004e509000ab
:102050000080fb008e00400050c4b300914f100080
:10206000210032004e5090000040e8004057980098
:1020700010118000610060000000e00008003a00dc
:102080009e089000f0342c00808f500004003e0029
:102090001e0890000000e800100f9800f4ff3700c1
:1020a0009e089000f0342c00808f5000060036000f
:1020b0004e5090000080fb008e00400050c4b300e2
:1020c00080487800050037004e5090000080fb00eb
:1020d0008e00400030118000804878000000eb0046
:1020e000100f9800d9ff37004e509000f04f50006d
:1020f00010003a002e409000e34f50000d003a00cf
:102100003e409000e44f50000a003a0030c5b30052
:10211000004f780020c6b30042eab70010c0b300f9
:1021200046eab70010c0b30048eab7000000eb0071
:10213000205288000080fa004f00be0000400600d8
:10214000809fbe004000fa000000eb00000f780006
:102150000040eb002047980087c0a900b011800024
:10216000304798004a0ae2000a003a00be40900058
:1021700030c5b30080cf500006003a0010002000a8
:102180005052880064004700be409000014878002b
:10219000c00037004a0ae20007003a00be40900043
:1021a00030c4b30080cf500003003a00300020005c
:1021b00050528800b700370050528000e10f5000a5
:1021c00047003a00e40047002e4090000080fb00ea
:1021d0008100400050c4b300914f10002a0032002b
:1021e0002e4090000004e00008003a0010c0b30048
:1021f00020479800e40047002e4090000080fb003c
:1022000001004000be409000014878002e40900040
:102210000040e800204798009011800061006000b5
:102220000000e00005003a00f0342c009e0f100082
:1022300002003e001e0fe800f7ff3700f0342c00cc
:102240009e0f100007003600e40047002e4090006b
:102250000080fb008100400050c4b300804878003b
:1022600006003700e40047002e4090000080fb008d
:1022700081004000b0118000804878000000eb0031
:10228000000f7800cfff37000000eb0050528800ad
:102290002e409000f04f50007e003a00640047004e
:1022a00020409000e14f50007a003a00640047005f
:1022b00030409000e24f500076003a0010c0b3006a
:1022c00046eab70010c0b30047eab70020c6b30023
:1022d00042eab7000000eb00c04b88006d003700f9
:1022e0004a0ae2000a003a00be40900050c3b30020
:1022f00080cf500006003a00200020005052880095
:1023000064004700be40900001487800610037003b
:1023100050528000e20f50004d003a00e4004700a8
:102320002e4090000080fb008100400050c3b300ad
:10233000914f100003003a002e4090000004e0008e
:102340002a003a002e4090000004e00008003a0005
:1023500010c0b30020479800e40047002e409000d2
:102360000080fb0001004000be4090000148780062
:102370002e4090000040e800204798009011800017
:10238000610060000000e00005003a00f0342c001d
:102390009e0f100002003e001e0fe800f7ff3700fe
:1023a000f0342c009e0f100007003600e4004700b8
:1023b0002e4090000080fb008100400050c3b3001d
:1023c0008048780006003700e40047002e40900067
:1023d0000080fb0081004000b01180008048780040
:1023e0000000eb00000f7800ccff37000000eb008e
:1023f00050528800ae40900010c3b30080cf500010
:1024000024003a0064004700f040900010c3b3007d
:1024100080cf50001f003a0064004700a0489000a1
:1024200020c3b30080cf50001a003a0010c0b300a0
:1024300046eab70010c0b30047eab70010c6b300c1
:1024400042eab7000000eb00c04b880011003700e3
:1024500050528000e30f50000e003a000000eb00e5
:1024600050528800be40900010c5b30080cf50008d
:1024700008003a0097c0a90097e0a9009560a9005c
:102480009580a90099e0a9009860a9000c24a900f2
:10249000ffff37000080fa004f00be00004006003a
:1024a000801f78000000fa000ac4bf000080fb0013
:1024b0000000d1000080fb00610060000000e0002f
:1024c0002500320020c4bf000080fb000000d100c6
:1024d0000080fb00610060000000e00005003200a9
:1024e00050c0b30064e9b70010c0b30067e9b7009b
:1024f0001700370020c4bf000080fb004200de0050
:102500000080fb00610060000000e0000500320078
:1025100050c0b30064e9b70020c0b30067e9b7005a
:102520000b00370020c4bf000080fb004300de002a
:102530000080fb00610060000000e0000400320049
:1025400050c0b30064e9b70030c0b30067e9b7001a
:102550000a24a900060037000ac4bf000080fb005f
:10256000610060000000e000010032000a04a900e0
:102570008860a9000080fa004f0078000040060043
:102580001e00fa00803e2000100798000000eb00bb
:10259000600798000060fe0000202200103a8800ca
:1025a000cda2a900cdc2a900d362a900d202a90080
:1025b000dec2a900de22a900de02a800f0050700a5
:1025c0002ca3a8002c83a8006ca3a8006c83a800ef
:1025d000d1a2a800d602a900d1c2a900d762a90041
:1025e000e2c2a8007e02070091020700ba020700bb
:1025f000fe0407008c0507009860a8000c24a800c2
:102600000060fe00800c200018fe07007100200012
:10261000002e2a002efe0700215280001003200009
:10262000808f500002003c004c4ae20002003a0059
:10263000d762a80001003700d762a9000060fe0041
:10264000101180006e0060000000e0000300320006
:1026500030118000405f98002222a9009011800074
:102660006e0060000000e00003003200b011800046
:10267000405f98003222a900c14b8000c0032000b7
:10268000808f500003003400930207000000eb002d
:10269000c04b880060a4200011c0b30090cf100090
:1026a000ddff3a00d602a800d1c2a8000060fe00fb
:1026b00010c0b30053e9b70040c0b30054e9b700fd
:1026c0000040eb0055e9b700100020000100200099
:1026d000b04a8800c14a880010c0b3005ae9b70068
:1026e00020c0b3005be9b70030c0b3005ce9b700bd
:1026f00040c0b3005de9b70050c0b3005ee9b70069
:1027000060c0b3005fe9b70070c0b30060e9b70014
:1027100080c0b30061e9b70080c0b30062e9b700d0
:10272000209520009b02070000a62e00cffd070089
:1027300000a62e00cdfd07000000eb00400798002a
:102740004e009000e10f50001d013c0000322000bf
:10275000c6fd07000060fe0010c0b30053e9b700db
:1027600040c0b30054e9b7000040eb0055e9b700a2
:102770004e0090000000e8004400dd000010a000c2
:10278000cf80de00b04a8800c14a880010c0b30084
:102790005ae9b70020c0b3005be9b70030c0b3000e
:1027a0005ce9b70040c0b3005de9b70050c0b300ba
:1027b0005ee9b70060c0b3005fe9b70070c0b30066
:1027c00060e9b70080c0b30061e9b70080c0b30022
:1027d00062e9b700209520006e0207004e009000cd
:1027e00002952000820040000040eb008048780005
:1027f0004e009000039520000300400031c0b3005c
:1028000090cf1000e8003e004096200052c0b30078
:10281000904f1100f6ff3a00409620004503070054
:1028200060c0b30064e9b7004e009000039520003b
:10283000030040001048e8004e0090000000e8004f
:102840004800dd000000a0006101b900404b80009d
:10285000514b8000820f5000838f58002d003a00aa
:10286000ce009000200120000008b800a38f2000b7
:10287000030140006cc9bf000080fb00c800dd0000
:102880006dc9bf000080fb0000894000ce009000b1
:10289000000120000008b80003932000030140005d
:1028a0006ec9bf000080fb00c800dd006fc9bf001b
:1028b0000080fb0000894000ce0090002001200035
:1028c0000008b800c38f20000301400070c9bf009a
:1028d0000080fb00c800dd0071c9bf000080fb0064
:1028e00000894000ce009000000120000008b800e0
:1028f000239320000301400072c9bf000080fb0049
:10290000c800dd0073c9bf000080fb0000894000e3
:10291000b7ff37004e0090000000e8004800dd00df
:102920000010a0006101b900404b8000514b8000b5
:10293000820f5000838f58002d003a00ce00900087
:10294000200120000008b800e38f200003014000b0
:102950006cc9bf000080fb00c800dd006dc9bf006e
:102960000080fb0000894000ce00900000012000a4
:102970000008b80043932000030140006ec9bf0067
:102980000080fb00c800dd006fc9bf000080fb00b5
:1029900000894000ce009000200120000008b8000f
:1029a000039020000301400070c9bf000080fb00bd
:1029b000c800dd0071c9bf000080fb000089400035
:1029c000ce009000000120000008b80063932000b2
:1029d0000301400072c9bf000080fb00c800dd0099
:1029e00073c9bf000080fb000089400080ff3700f2
:1029f0004e0090000000e8004800dd003000b30009
:102a00006101b900404b8000514b8000820f5000a3
:102a1000838f58002d003a00ce0090002001200046
:102a20000008b80023902000030140006cc9bf00db
:102a30000080fb00c800dd006dc9bf000080fb0006
:102a400000894000ce009000000120000008b8007e
:102a500083932000030140006ec9bf000080fb008b
:102a6000c800dd006fc9bf000080fb000089400086
:102a7000ce009000200120000008b8004390200004
:102a80000301400070c9bf000080fb00c800dd00ea
:102a900071c9bf000080fb0000894000ce0090009b
:102aa000000120000008b800a393200003014000ab
:102ab00072c9bf000080fb00c800dd0073c9bf0001
:102ac0000080fb000089400049ff37004e00900065
:102ad0000000e8004800dd000020a0006101b9000e
:102ae000404b8000514b8000820f5000838f580074
:102af0003fff3a00ce009000200120000008b800ff
:102b000063902000030140006cc9bf000080fb00ff
:102b1000c800dd006dc9bf000080fb0000894000d7
:102b2000ce009000000120000008b800c3932000f0
:102b3000030140006ec9bf000080fb00c800dd003b
:102b40006fc9bf000080fb0000894000ce009000ec
:102b5000200120000008b8008390200003014000fd
:102b600070c9bf000080fb00c800dd0071c9bf0054
:102b70000080fb0000894000ce0090000001200092
:102b80000008b800e39320000301400072c9bf00b1
:102b90000080fb00c800dd0073c9bf000080fb009f
:102ba0000089400012ff370010c0b3004ceab700a4
:102bb0004e0090000000e80040079800e0fe37005b
:102bc0000060fe000040eb00205f9800fb00470023
:102bd0007600470012c0b300670507008040780008
:102be0002e58900001404000205f9800fb004700f5
:102bf000780047000041eb005f0507008040780047
:102c00002e58900001404000205f98002e58900000
:102c10000004e000020032005904070002003700ff
:102c20000040eb00205f980030c5b3007ae9b700a0
:102c300010c0b3007be9b70020c0b3007ce9b70047
:102c400030c0b3007de9b70040c0b3007ee9b700f3
:102c500050c0b3007fe9b70060c0b30080e9b7009f
:102c600076c9bf0081e9b7008000200060079800a6
:102c70000000eb00500798005e009000e10f50004c
:102c800055003c006e009000a1972000010040001c
:102c90002e499000024878006e0090000000e80085
:102ca000600798000000eb00400798004e0090007d
:102cb000e70f500044003c006e009000a1972000f8
:102cc00081014000de009000900020000008b80064
:102cd0004e019000020040000000d000a28f2000b2
:102ce00002004000100078004800de0080497800b3
:102cf0006e0090000000e800600798006e009000f1
:102d0000a197200081014000de009000900020008b
:102d10000008b8004e019000020040000000d00002
:102d2000a28f200002004000904978006e009000c1
:102d30000000e800600798006e009000a197200056
:102d400081014000de009000800020000008b800f3
:102d50004e019000020040000000d00002932000cd
:102d600002004000100078004800de008049780032
:102d70006e0090000000e800600798006e00900070
:102d8000a197200081014000de009000800020001b
:102d90000008b8004e019000020040000000d00082
:102da0000293200002004000904978006e009000dd
:102db0000000e800600798004e0090000000e80066
:102dc00040079800b9ff37005e0090000000e8005f
:102dd00050079800a8ff37006e009000a3972000ce
:102de000830040000040eb00804878006e009000b7
:102df0000000e800600798006e009000a297200095
:102e0000820040000040eb00804878006e00900097
:102e10000000e800600798006e009000a397200073
:102e2000830040003e0890004800de0080487800a3
:102e30006e0090000000e800600798006e009000af
:102e4000a1972000010040006e51900002487800d8
:102e50006e0090000000e800600798006e0090008f
:102e6000a3972000830040004e0890004800de0039
:102e7000804878006e0090000000e800600798002d
:102e80006e009000a1972000010040000e599000b4
:102e9000024878006e0090000000e800600798008b
:102ea0006e009000a39720008300400050c4b30040
:102eb000804878006e0090000000e80060079800ed
:102ec00010c6b300424ae3000300320020c6b3003c
:102ed000424ae30014003a000000eb00000f7800c3
:102ee0006e0090009e0f10000f003d001e00780045
:102ef0000000d0000280200082004000a397200044
:102f00001e8041001080fb00801f7800802e2a0068
:102f1000801f78000100780081f50700e4875700e2
:102f20001e0fe800eeff370010c6b300424ae30070
:102f300011003a0070a4200011c0b30090cf10001f
:102f400004003a006e0090008000d0000080200055
:102f5000dffb070080a4200012c0b300904f1100d7
:102f600016003a006e0090008000d0000080200023
:102f7000f1fb07001100370020c6b300424ae3000e
:102f80000e003a0070a4200013c0b30090cf1100cf
:102f900003003a00ee009000a0972000ccfb070051
:102fa00080a4200011c0b30090cf100003003a00ad
:102fb000ee009000a0972000dffb0700d602a900da
:102fc000d1c2a9000040eb0046eab7000040eb0088
:102fd00047eab7000040eb0048eab7008efd370033
:102fe0000000fa002de1a900c112200091407800f4
:102ff00000c3b30000c070002ce1b7002c21a90071
:1030000040422f00400988000000eb0010098800b2
:10301000d10580000000270000807000d0058800e6
:1030200089e0a90099e0a8000080fa0000000600ed
:103030000000fa000000eb00100988002de1a80054
:103040000080fa00000006000000fa002de1a9004f
:103050000080fa00000006000000fa0011e1a9005b
:103060000000eb0030088800e0ff2f0060088800b7
:103070000111200091407800f0ccb30000c0600046
:103080000044a00010e1b7001021a90010c1a90060
:103090000080fa00000006000000fa000000eb00cb
:1030a000300888000111200091407800f0ccb30076
:1030b00000c060000044a00010e1b70011e1a800ca
:1030c0000080fa00000006000000fa0011e1a900eb
:1030d0000080fa00000006000000fa00de82a8006e
:1030e000dea2a90087c0a90000082000c011880046
:1030f0003002a900012320009140780090cfb30056
:1031000000c0600030e2b70030a2a90033a2a900dd
:1031100033e2a90032c2bf00f043b20032e2b7008e
:1031200031e2a8003342a80097c0a80097e0a900a8
:1031300087c0a900de42a800de62a9008560a90060
:1031400000082000401188002002a9000122200070
:103150009140780090cfb30000c0600020e2b7003b
:1031600020a2a90023a2a90023e2a90022c2bf0035
:10317000f043b20022e2b70021e2a8002342a800f7
:103180009560a8009580a9008560a9000080fa00dc
:10319000000006000e00fa00000f78006000b80082
:1031a00010079800210798006000b80030079800c9
:1031b000410798006000b800500798006107980028
:1031c0001e00780020409000e34f50002c003a0091
:1031d0001e00780020019000b00190000000200047
:1031e000c1ff210000006100818061004008de0015
:1031f0000100200010079800210798001e00900091
:10320000ae00900063004000e08048001007980086
:10321000210798001e00780020019000b001900066
:1032200000fc2f003100200000006100818061005f
:103230004a09dd004600de0000007100c608de001d
:1032400030079800410798001e0078002001900088
:10325000b0019000f0032000010020000000610098
:10326000818061004a09dd00c600de008100710036
:103270004a00dd0050079800610798000d003700f4
:103280001e00780020019000b0019000f07f200027
:103290000100200000006100818061004209dd0022
:1032a000ce00de00810071004200dd0010079800b2
:1032b000210798001e00780010409000e24f500057
:1032c00030003a001e00780020409000e34f50008c
:1032d00009003a005e009000ee00900002202000fd
:1032e00003002000020070008380700050079800e7
:1032f00061079800050037001e009000ae009000a6
:103300000010a00010079800210798000278240000
:103310001e007800304090008080fb0000012000fb
:103320000008b800000041009e00900001087800ed
:10333000027824001e007800304090008080fb005e
:10334000000120000008b800000041000080e800f3
:103350003e01900002087800027824001e007800e8
:10336000304090008080fb00000120000008b80081
:103370000000410064004000de0090000108780079
:10338000690037001e007800005090000080fb00ac
:10339000010020006f0160008001eb005e009000e2
:1033a000ee00900000004100818049005007980025
:1033b00061079800027824001e00780030409000d9
:1033c0008080fb00000120000008b80000004100e0
:1033d0001e01900002087800027824001e00780088
:1033e000304090008080fb00000120000008b80001
:1033f000000041000080e800be0090000108780055
:10340000027824001e007800304090008080fb008d
:10341000000120000008b8000000410064004000e6
:103420005e01900002087800027824001e007800f7
:10343000304090008080fb00000120000008b800b0
:1034400000004100660140001e0078001048900016
:103450000080fb00c800dd001e00780000489000de
:103460000080fb0000894000027824001e007800e4
:10347000304090008080fb00000120000008b80070
:1034800000004100680140001e00780030489000b4
:103490000080fb00c800dd001e007800204890007e
:1034a0000080fb0000894000027824001e007800a4
:1034b000304090008080fb00000120000008b80030
:1034c000000041006a0140001e0078005048900052
:1034d0000080fb00c800dd001e007800404890001e
:1034e0000080fb0000894000027824001e00780064
:1034f000304090008080fb00000120000008b800f0
:10350000000041006c0140001e00780070489000ef
:103510000080fb00c800dd001e00780060489000bd
:103520000080fb00008940003064a8000080fa00a1
:10353000000006000a00fa00000f78000000eb000f
:10354000100798000000eb00200798006000b8000a
:103550003007980041079800027824001e00780088
:10356000304090008080fb00000120000008b8007f
:103570000000410010007800610060001007980012
:103580001e0090000000e0001c003a009e01780040
:10359000027824001e007800304090008080fb00fc
:1035a000000120000008b80080004100c0ff210099
:1035b000110060004200de0001002000a001980020
:1035c000b10198009e00780040c0b300a040980070
:1035d000027824001e007800304090008080fb00bc
:1035e000000120000008b800000041001000780031
:1035f00062006000200798005a003700027824001b
:103600001e007800304090008080fb000001200008
:103610000008b80000004100100078006101b80007
:10362000c0ff2100010020000000610081806100d6
:1036300030079800410798001e0178003e00900076
:10364000ce009000c000dd000000200020019800a6
:1036500031019800027824001e007800304090006c
:103660008080fb00000120000008b800000041003d
:103670000080e800100078006101b800f0ff200031
:103680000100200000006100818061003007980087
:10369000410798009e0278001e0278003e009000cc
:1036a000ce0090004609dd00ca01de0083017100f2
:1036b0004601dd0024009000b400900000004100ad
:1036c00081804900a0029800b1029800027824008d
:1036d0001e007800304090008080fb000001200038
:1036e0000008b80000004100e400400000c02f00c6
:1036f000110060004a00de00010020003007980041
:10370000410798001e0278001e00780020019000fa
:10371000b00190003e009000ce00900002004000fa
:103720008380480020029800310298009e007800b3
:1037300030c0b300a0409800027824001e0078003a
:10374000304090008080fb00000120000008b8009d
:1037500000004100e4004000002020001100600053
:10376000200798002e009000e10f500004003a005e
:103770009e00780020c0b300904098006f00370092
:103780009e00780010c0b300904098009e01780021
:10379000027824001e007800304090008080fb00fa
:1037a000000120000008b800000041006600400051
:1037b00010407800804998009e017800027824002b
:1037c0001e007800304090008080fb000001200047
:1037d0000008b80000004100e600400000f02f00a3
:1037e000110060004800de00904998009e017800ba
:1037f000027824001e007800304090008080fb009a
:10380000000120000008b8000000410068004000ee
:1038100010407800a04998009e01780002782400aa
:103820001e007800304090008080fb0000012000e6
:103830000008b80000004100e800400000f02f0040
:10384000110060004800de00b04998009e01780039
:10385000027824001e007800304090008080fb0039
:10386000000120000008b800000041006a0040008c
:1038700010407800c04998009e017800027824002a
:103880001e007800304090008080fb000001200086
:103890000008b80000004100ea00400000f02f00de
:1038a000110060004800de00d04998009e017800b9
:1038b000027824001e007800304090008080fb00d9
:1038c000000120000008b800000041006c0040002a
:1038d00010407800e04998009e01780002782400aa
:1038e0001e007800304090008080fb000001200026
:1038f0000008b80000004100ec00400000f02f007c
:10390000110060004800de00f04998009e01780038
:10391000027824001e007800304090008080fb0078
:10392000000120000008b8000000410064004000d1
:10393000104078006f406000805198001e007800b1
:1039400030409000020007000080fa0000000600ee
:103950000200fa00004f780020c4bf000080fb0086
:103960000000d1000080fb00610060000000e0006a
:103970000500320010c0b3009e4f100002003a0054
:103980002024a9001700370020c4bf000080fb00de
:103990004200de000080fb00610060000000e000eb
:1039a0000500320020c0b3009e4f100002003a0014
:1039b0002044a9000b00370020c4bf000080fb009a
:1039c0004300de000080fb00610060000000e000ba
:1039d0000400320030c0b3009e4f100001003a00d6
:1039e0002064a9000080fa00000006000000fa0030
:1039f000114020009140780080cfb30000c06000eb
:103a00000024a00001e4b70000c4bf000080fb0058
:103a10004500de000080fb00e40f5000faff3a0092
:103a20000164a900014120009140780000ccb3005e
:103a300000c0600010e4b700014120009140780010
:103a400000ccb30000c0700010e4b700214120009a
:103a50009140780080c3b30000c0700012e4b7004a
:103a600012e4a800314120009140780080cfb300db
:103a700000c060005040b30013e4b70021412000b3
:103a80009140780080cfb30000c060000024a00007
:103a900012e4b70012c4a80007c4bf007f40600052
:103aa00007e4b7000004a80081412000914078009d
:103ab000c0cfb30000c0600018e4b7000000eb0006
:103ac00080218800000022000022880080218000e0
:103ad0000030a000802188000122800070ff2f00ac
:103ae00000806000002288000142200091407800a0
:103af00000cfb30000c060000004a00020e4b700c5
:103b00001404a800814120009140780030cfb30018
:103b100000c0600018e4b7000000240020228800e4
:103b2000802180000030a000a021880001228000b8
:103b300070ff2f00008060002022880020c4bf009a
:103b40006f40600001c2b3000140700020e4b70084
:103b50001424a8008141200091407800f0ccb300eb
:103b600000c0600018e4b700000026004022880072
:103b7000802180000030a000c02188000122800048
:103b800070ff2f000080600040228800114220005a
:103b90009140780000cfb30000c060003040b30017
:103ba00021e4b7001444a8000004a900114020003b
:103bb0009140780080cfb30000c0600001e4b700fe
:103bc00000c4bf000080fb004500de000080fb0059
:103bd0000000e000faff3a000000eb0050218800ee
:103be0005021800040218800402180001021880061
:103bf000102180000021880030e4a80031e4a900f1
:103c000032e4a90033e4a90030c4bf003040b3005f
:103c100030e4b7000000eb00002188000a24a9006e
:103c20000080fa00000006000000fa000000eb002f
:103c3000001f880000022200001c88002044200091
:103c4000401c880070002000501c88006004200088
:103c5000101c880000782000201c880081e3a80048
:103c60000000eb00001f880000022000c01c88003c
:103c700000442000001d880070002000101d8800f6
:103c800020022000d01c880000782000e01c880062
:103c900099e3a8000080fa00000006000000fa0086
:103ca000e462a900e442a900e662a800e642a90095
:103cb0000000000000000000000000000000000004
:103cc0000000000000000000e642a8000000000024
:103cd00000000000000000000000000000000000e4
:103ce00000000000e662a9000000000000000000e3
:103cf00000000000000000000000000000000000c4
:103d0000e642a900000000000000000000000000e2
:103d100000000000000000000000000000000000a3
:103d200000000000e642a8000000000000000000c3
:103d30000000000000000000000000000000000083
:103d4000e662a80000000000000000000000000083
:103d5000000000000000000000000000e642a90092
:103d60000000000000000000000000000000000053
:103d700000000000000000000080fa0000000600c3
:103d80000200fa00e462a900e442a900e662a80089
:103d9000e642a90000000000000000000000000052
:103da0000000000000000000000000000040eb00e8
:103db000004f780080c0b3009e4f10000e003e0000
:103dc000e642a80000000000000000000000000023
:103dd0000000000000000000e642a9000000000012
:103de00000000000000000000000000000000000d3
:103df0001e4fe800efff3700a8ff07000080fa0021
:103e0000000006000400fa00004f78000040eb00bc
:103e100020479800e462a900e442a90000000000e5
:103e20000000000000000000000000000000000092
:103e300000c8b300104798001e4090000004e00046
:103e40001b0032001e4090001e4060000004e00095
:103e500002003200e662a80001003700e662a90015
:103e60000000000000000000000000000000000052
:103e70000000000000000000000000000000000042
:103e8000e642a80000000000000000000000000062
:103e90000000000000000000e642a9001e40900063
:103ea0000080fb000000d10010479800e2ff3700bf
:103eb000e662a800e462a800000000000000000024
:103ec000000000000000000000000000e642a80022
:103ed00000000000000000000000000000000000e2
:103ee00000000000e6c2bf000080fb004300de00cf
:103ef0000080fb006100600020479800e642a900b6
:103f000000000000000000000000000000000000b1
:103f1000000000002e4090000000fb000080fa002e
:103f2000000006000600fa00004f78000040eb0099
:103f300020479800e462a900e442a900e662a800d4
:103f4000e462a80000000000000000000000000083
:103f5000000000000000000000c8b30010479800f7
:103f60001e4090000004e0001c0032000000000031
:103f70000000000000000000000000000000000041
:103f8000e642a80000000000000000000000000061
:103f90000000000000000000e6c2bf000080fb003f
:103fa0004300de000080fb00610060000000e000d4
:103fb000040032002e4090009e40900001407000ae
:103fc00020479800e642a9001e4090000080fb00b8
:103fd0000000d10010479800e1ff3700e462a9001b
:103fe00000000000000000000000000000000000d1
:103ff000000000000000eb00200798001e04e00015
:1040000002003a001100200021079800ce409000e5
:1040100061c060004301dd00612e20009140780006
:1040200070cfb30000c0600002407000e6e2b7004d
:10403000e642a800000000000000000000000000b0
:104040000000000000000000000000000000000070
:1040500000000000e642a900e662a800000000009f
:104060000000000000000000000000000000000050
:104070002e4090000000fb000080fa0000000600c7
:104080000200fa000040eb00004f7800e462a90053
:10409000e442a90000000000000000000000000051
:1040a000000000000000000035ff0700e0c1b30081
:1040b00054ff07001e4f40001e00fb000080fa0066
:1040c000000006000600fa00881f7800000f780044
:1040d000110798000040eb0040479800effe0700f2
:1040e00070c0b30047ff0700404798001e047800e7
:1040f00010c0b3008bff0700004c78001e04900036
:104100000040eb0087ff0700004c78004e40900015
:104110000000fb004f0478000080fa000000060059
:104120000400fa00000f78000040eb0020479800e0
:10413000dafe070060c0b30032ff0700804078005d
:104140002e40900001404000204798001e0078005b
:10415000104078002bff0700804078002e40900030
:1041600001404000204798002e4090000000fb00d6
:104170000080fa00000006000e00fa00881f780098
:10418000000f780011079800424798000000eb00ec
:1041900040079800c1fe07004e4090000080fb00e1
:1041a000600798006e0090000000e00004003200fc
:1041b0006e009000e10f5000080032000d00370043
:1041c00030c0b3000fff07008000fb004e009000de
:1041d00001004000400798000600370050c0b300bf
:1041e00008ff07008000fb004e0090000100400027
:1041f000400798000000eb00500798005e00900018
:10420000e40f400056003e000000000000000000e7
:10421000000000000000000000000000000000009e
:10422000000000000000000000000000000000008e
:10423000000000000000000000000000000000007e
:10424000000000000000000000000000000000006e
:10425000000000000000000000000000000000005e
:10426000000000000000000000000000000000004e
:10427000000000000000000000000000000000003e
:10428000000000000000000000000000000000002e
:10429000000000000000000000000000000000001e
:1042a000000000000000000000000000000000000e
:1042b00000000000000000000000000000000000fe
:1042c00000000000000000000000000000000000ee
:1042d00000000000000000000000000000000000de
:1042e00000000000000000000000000000000000ce
:1042f00000000000000000000000000000000000be
:1043000000000000000000000000000000000000ad
:10431000000000000000000000000000000000009d
:10432000000000000000000000000000000000008d
:1043300000000000e6c2bf000080fb004300de007a
:104340000080fb00610060000000e000040032001b
:104350005e0090000000e80050079800a7ff3700bb
:10436000e6c2bf000080fb004300de000080fb00cf
:10437000610060000000e000030032004e00900089
:104380000000e800400798001e04e80010c0b300d9
:10439000e4fe0700004c780010c0b300e1fe070007
:1043a000504798001e04780010c0b300ddfe0700df
:1043b000004c780010c0b300dafe07006047980098
:1043c0001e0490000040eb00d6fe0700004c780071
:1043d0000e4890000000fb004f0478000080fa00b7
:1043e000000006002c00fa00889fbe00000f780035
:1043f000110798000000200001082c0020079800f9
:104400003107980040352e0051d223004007980014
:1044100051079800207a2e00b1632b0060079800a6
:1044200071079800a0702d0031c22300000f980082
:10443000110f9800c05a2c00718a2300200f980099
:10444000310f98001e0078001001be00420f980046
:10445000530f98001e0090001001be00620f9800dc
:10446000730f9800a2702d0033c223006e089000d5
:10447000fe0890001df40700020020000322240023
:104480004ef4070040179800511798004e0990000d
:10449000de0990006e009000fe00900013f407000b
:1044a0004e099000de09900010f407000004be00e1
:1044b0004e099000de0990004e009000de00900052
:1044c0000af407000001be000800be003cf407002b
:1044d0002e019000be01900039f4070000179800eb
:1044e0001117980002002000831c24004e10900039
:1044f000de10900031f407000004be004e09900069
:10450000de0990002e089000be089000f7f3070027
:104510000e0990009e09900029f407000001be00da
:104520000800be00f1f307000e1190009e119000ec
:1045300023f407002017980031179800020020008c
:10454000832c24002e109000be10900079f40700f8
:104550000000e0000400340000002000812c240052
:104560002017980031179800d2cc2c00c3dc230010
:104570002e109000be10900070f407000000e000c4
:1045800004003d00d0cc2c00c1dc23002017980093
:10459000311798001e0090004e119000de1190001f
:1045a0000288be001e0078002e119000be119000ff
:1045b0000288be004f04be000080fa000000060022
:020000040000fa
:0200000401f009
:04000000cf0000002d
:020000040000fa
:0200000401f009
:04000400cf00000029
:020000040000fa
:0200000401f009
:0400080007000000ed
:020000040000fa
:0200000401f009
:04000c00a20000004e
:020000040000fa
:0200000401f009
:0400100046000000a6
:020000040000fa
:0200000401f009
:04001400df00000009
:020000040000fa
:0200000401f009
:04001800e7000000fd
:020000040000fa
:10000800ce230000ce230000ce230000ce23000024
:10001800ce230000ce230000ce230000ce23000014
:10002800ce230000ce230000ce230000ce23000004
:10003800ce230000ce230000ce230000ce230000f4
:10004800ce230000ce230000ce23000014100000b1
:10005800ce230000ce230000ce230000ce230000d4
:10006800ce230000ce230000ce230000ce230000c4
:10007800ce230000ce230000ce230000ce230000b4
:10008800ce230000ce230000ce230000ce230000a4
:10009800ce230000ce230000a0100000ce230000d5
:1000a800ce230000ce230000ce2300005012000013
:1000b800ce230000ce230000ce230000ce23000074
:1000c800ce230000ce230000ce230000ce23000064
:1000d800ce230000ce230000ce230000d00f000066
:1000e800ce230000ce230000ce230000ce23000044
:1000f800ce230000ce230000ce230000ce23000034
:10010800ce230000ce230000ce230000ce23000023
:10011800ce230000ce230000ce230000ce23000013
:10012800ce230000ce230000ce230000ce23000003
:10013800ce230000ce230000ce230000ce230000f3
:10014800ce230000ce230000ce230000ce230000e3
:10015800ce230000ce230000ce230000ce230000d3
:10016800ce230000ce230000ce230000ce230000c3
:10017800ce230000ce230000ce230000ce230000b3
:10018800ce230000ce230000ce230000ce230000a3
:10019800ce230000ce230000ce230000ce23000093
:1001a800ce230000ce230000ce230000ce23000083
:1001b800ce230000ce230000ce230000ce23000073
:1001c800ce230000ce230000ce230000ce23000063
:1001d800ce230000ce230000ce230000ce23000053
:1001e800ce230000ce230000ce230000ce23000043
:0801f800ce230000ce2300001d
:020000040000fa
:10020800ce230000ce230000ce230000ce23000022
:10021800ce230000ce230000ce230000ce23000012
:10022800ce230000ce230000ce230000ce23000002
:10023800ce230000ce230000ce230000ce230000f2
:10024800ce230000ce230000ce23000014100000af
:10025800ce230000ce230000ce230000ce230000d2
:10026800ce230000ce230000ce230000ce230000c2
:10027800ce230000ce230000ce230000ce230000b2
:10028800ce230000ce230000ce230000ce230000a2
:10029800ce230000ce230000a0100000ce230000d3
:1002a800ce230000ce230000ce2300005012000011
:1002b800ce230000ce230000ce230000ce23000072
:1002c800ce230000ce230000ce230000ce23000062
:1002d800ce230000ce230000ce230000d00f000064
:1002e800ce230000ce230000ce230000ce23000042
:1002f800ce230000ce230000ce230000ce23000032
:10030800ce230000ce230000ce230000ce23000021
:10031800ce230000ce230000ce230000ce23000011
:10032800ce230000ce230000ce230000ce23000001
:10033800ce230000ce230000ce230000ce230000f1
:10034800ce230000ce230000ce230000ce230000e1
:10035800ce230000ce230000ce230000ce230000d1
:10036800ce230000ce230000ce230000ce230000c1
:10037800ce230000ce230000ce230000ce230000b1
:10038800ce230000ce230000ce230000ce230000a1
:10039800ce230000ce230000ce230000ce23000091
:1003a800ce230000ce230000ce230000ce23000081
:1003b800ce230000ce230000ce230000ce23000071
:1003c800ce230000ce230000ce230000ce23000061
:1003d800ce230000ce230000ce230000ce23000051
:1003e800ce230000ce230000ce230000ce23000041
:0803f800ce230000ce2300001b
:020000040000fa
:1045c00072650000737400006172000074000000e6
:0c45d000253000003278000000000000e0
:020000040000fa
:1045dc0076090000d8000000020000000300000073
:1045ec00000102000304050006070800090a000088
:1045fc0000000000000000000000000000000000af
:10460c00000000000000000000000000000000009e
:10461c00000000000000000000000000000000008e
:10462c00000000000000000000000000000000007e
:10463c00000000000000000000000000000000006e
:10464c00000000000000000000000000000000005e
:10465c00000000000000000000000000000000004e
:10466c00000000000000000000000000000000003e
:10467c00000000000000000000000000000000002e
:10468c00000000000000000000000000000000001e
:10469c00000000000000000000000000000000000e
:1046ac0000000000000000000000000000000000fe
:1046bc0000000000000000000000000000000000ee
:1046cc0000000000000000000000000000000000de
:1046dc0000000000000000000000000000000000ce
:1046ec00000000000000000000000000620000005c
:1046fc0000000000000000000000000080470000e7
:10470c0040000000000000000008000076010000de
:10471c0000000000700a00001200000002000000ff
:10472c00202b2d00233000000100020000040000ab
:10473c000800100000000000c04700000800000046
:10474c0002000000686a6c00747a4c0000000000e3
:10475c004e0a00002200000002000000303132003e
:10476c0033343500363738003961620063646500d4
:10477c0066003000313233003435360037383900ba
:10478c004142430044454600000000000000000088
:020000040000fa
:04479c000000fe001b
:00000001FF
